:100000000C942A000C9447000C9447000C94470071
:100010000C9447000C9447000C9447000C9478060D
:100020000C9447000C944F060C9447000C94470026
:100030000C9447000C9447000C9447000C94470024
:100040000C9447000C9447000C9447000C94470014
:100050000C94470011241FBECFE5D8E0DEBFCDBF12
:1000600011E0A0E6B0E0E0E1F6E102C005900D92FB
:10007000A837B107D9F711E0A8E7B1E001C01D9298
:10008000AD38B107E1F70E94EF090C94060B0C9410
:100090000000EF92FF920F931F937B018C0120E0F1
:1000A00030E040E05FE40E94190388238CF0C8012F
:1000B000B70120E030E040E05FE40E94C1010E940F
:1000C000A7039B01AC01205030404040504806C07F
:1000D000C801B7010E94A7039B01AC01B901CA0185
:1000E0001F910F91FF90EF900895A0E0B0E0EBE733
:1000F000F0E00C94CF0ADC012B01FA019C919230C4
:1001000008F439C1EB018881823008F433C194309E
:1001100069F4843009F02FC111969C91119789815F
:10012000981709F428C1A0E6B0E025C1843009F48D
:1001300021C18230A9F4923009F01DC19A01AD01AC
:1001400088E0EA010990AE01E90109929E0181501F
:10015000C1F7E201898111969C918923818308C1AD
:10016000923009F407C112962D903C901397EB0141
:100170008A819B811496AD90BD90CD90DC901797AD
:10018000EC80FD800E811F819101281B390BB90184
:1001900037FF04C066277727621B730B6032710537
:1001A0000CF061C0121613066CF537014801062EDB
:1001B00004C096948794779467940A94D2F721E0C8
:1001C00030E040E050E004C0220F331F441F551FB1
:1001D0006A95D2F721503040404050402E213F21B7
:1001E00040235123211531054105510521F021E01E
:1001F00030E040E050E079018A01E628F72808293C
:1002000019293CC0232BD1F1260E371E350146019A
:10021000062E04C096948794779467940A94D2F734
:1002200021E030E040E050E004C0220F331F441FC3
:10023000551F6A95D2F721503040404050402A2146
:100240003B214C215D21211531054105510521F04E
:1002500021E030E040E050E059016A01A628B728CB
:10026000C828D9280BC0821593052CF01C01AA249C
:10027000BB24650103C0EE24FF24870111969C91E5
:10028000D20111968C91981709F445C0992339F041
:10029000A80197012A193B094C095D0906C0A6016E
:1002A00095012E193F09400B510B57FD08C01182D3
:1002B0003382228224833583468357831DC081E0A5
:1002C00081833382228288279927DC01821B930B4A
:1002D000A40BB50B84839583A683B7830DC0220F2F
:1002E000331F441F551F24833583468357838281E0
:1002F000938101979383828324813581468157813D
:10030000DA01C9010197A109B1098F5F9F4FAF4F72
:10031000BF4328F30BC0918333822282EA0CFB1C7B
:100320000C1D1D1DE482F5820683178383E0808304
:10033000248135814681578157FF1AC0C901AA27F8
:1003400097FDA095BA2F81709070A070B0705695EF
:10035000479537952795822B932BA42BB52B848318
:100360009583A683B7838281938101969383828349
:10037000DF0101C0D201CD01CDB7DEB7E2E10C94BF
:10038000EB0AA0E2B0E0E7ECF1E00C94DB0A698351
:100390007A838B839C832D833E834F835887E9E048
:1003A000EE2EF12CEC0EFD1ECE010196B7010E943F
:1003B0001F058E010F5E1F4FCE010596B8010E94EA
:1003C0001F058A8991E089278A8BC701B801AE0190
:1003D000475E5F4F0E9475000E944A04A096E6E0C7
:1003E0000C94F70AA0E2B0E0E8EFF1E00C94DB0A2D
:1003F00069837A838B839C832D833E834F835887C5
:10040000F9E0EF2EF12CEC0EFD1ECE010196B701A6
:100410000E941F058E010F5E1F4FCE010596B80189
:100420000E941F05C701B801AE01475E5F4F0E94E1
:1004300075000E944A04A096E6E00C94F70AA0E238
:10044000B0E0E5E2F2E00C94CF0A69837A838B8313
:100450009C832D833E834F835887CE010196BE0136
:10046000675F7F4F0E941F05CE010596BE016F5E3C
:100470007F4F0E941F059985923088F089898230CC
:10048000C8F0943019F4823051F404C0843029F457
:10049000923081F480E690E0C6C0923049F420E0CA
:1004A0009A858A89981321E02A87CE010996BBC0D4
:1004B000823049F420E09A858A89981321E02A8BBA
:1004C000CE014196B0C02D843E844F8458886D88FB
:1004D0007E888F88988CEE24FF248701AA24BB2471
:1004E000650140E050E060E070E0E0E0F0E0C10174
:1004F00081709070892BE9F0E60CF71C081D191D1E
:100500009A01AB012A0D3B1D4C1D5D1D80E090E062
:10051000A0E0B0E0E614F7040805190520F481E036
:1005200090E0A0E0B0E0BA01A901480F591F6A1F8E
:100530007B1FAA0CBB1CCC1CDD1C97FE08C081E0F5
:1005400090E0A0E0B0E0A82AB92ACA2ADB2A3196B6
:10055000E032F10549F0660C771C881C991C569412
:10056000479437942794C3CFFA85EA892B893C892D
:100570008B859C85280F391F2E5F3F4F17C0CA01FE
:1005800081709070892B61F016950795F794E79428
:1005900080E090E0A0E0B0E8E82AF92A0A2B1B2BC3
:1005A00076956795579547952F5F3F4F77FDE7CF36
:1005B0000CC0440F551F661F771F17FD4160EE0CDE
:1005C000FF1C001F111F21503040403090E05907A0
:1005D00090E0690790E4790760F32B8F3C8FDB0193
:1005E000CA018F779070A070B07080349105A1051A
:1005F000B10561F447FD0AC0E114F10401051105DC
:1006000029F0405C5F4F6F4F7F4F40781A8EFE1786
:1006100011F081E08A8F4D8F5E8F6F8F78A383E01A
:10062000898FCE0149960E944A04A096E2E10C947B
:10063000EB0AA8E1B0E0EFE1F3E00C94DB0A698398
:100640007A838B839C832D833E834F83588789E0F5
:10065000E82EF12CEC0EFD1ECE010196B7010E9492
:100660001F058E010F5E1F4FCE010596B8010E9437
:100670001F058985823040F08989823028F0C701C2
:10068000B8010E94970501C08FEF6896E6E00C94D0
:10069000F70AA8E0B0E0EFE4F3E00C94D80A9B017D
:1006A000AC0183E08983DA01C9018827B7FD83950E
:1006B0009927AA27BB27B82E2115310541055105D9
:1006C00019F482E089833AC08823A9F0203080E0C1
:1006D000380780E0480780E8580729F460E070E0B8
:1006E00080E09FEC30C0EE24FF248701E21AF30A79
:1006F000040B150B02C079018A018EE1C82ED12CA2
:10070000DC82CB82ED82FE820F831887C801B7019D
:100710000E94FB0301971816190684F4082E04C0E2
:10072000EE0CFF1C001F111F0A94D2F7ED82FE820F
:100730000F831887C81AD90ADC82CB82BA82CE010D
:1007400001960E944A042896E9E00C94F40AACE071
:10075000B0E0EDEAF3E00C94DF0A69837A838B83DF
:100760009C83CE010196BE016B5F7F4F0E941F05E7
:100770008D81823061F1823050F1843021F48E819C
:10078000882351F12EC02F81388537FD20C06E811E
:100790002F3131051CF06623F9F023C08EE190E083
:1007A000821B930B29853A854B855C8504C0569541
:1007B0004795379527958A95D2F76623B1F05095DE
:1007C0004095309521953F4F4F4F5F4F0EC020E031
:1007D00030E040E050E009C02FEF3FEF4FEF5FE720
:1007E00004C020E030E040E050E8B901CA012C9696
:1007F000E2E00C94FB0AEF92FF920F931F937B01B0
:100800008C0180E0E81680E0F80681E0080780E0CF
:10081000180788F48FEFE816F1040105110531F08F
:1008200028F088E090E0A0E0B0E017C080E090E021
:10083000A0E0B0E012C080E0E81680E0F80680E0BA
:10084000080781E0180728F088E190E0A0E0B0E018
:1008500004C080E190E0A0E0B0E020E230E040E0C1
:1008600050E0281B390B4A0B5B0B04C0169507950B
:10087000F794E7948A95D2F7F701E859FF4F808102
:10088000281B310941095109C9011F910F91FF909E
:10089000EF900895DF92EF92FF920F931F93FC0168
:1008A000E480F58006811781D1808081823048F410
:1008B00080E090E0A0E1B0E0E82AF92A0A2B1B2BA7
:1008C000A5C0843009F49FC0823021F4EE24FF24B7
:1008D000870105C0E114F1040105110519F4E0E0F8
:1008E000F0E096C0628173819FEF623879070CF067
:1008F0005BC022E83FEF261B370B2A3131052CF075
:1009000020E030E040E050E02AC0B801A701022E0C
:1009100004C076956795579547950A94D2F781E07C
:1009200090E0A0E0B0E004C0880F991FAA1FBB1F91
:100930002A95D2F70197A109B1098E219F21A02301
:10094000B1230097A105B10521F081E090E0A0E07E
:10095000B0E09A01AB01282B392B4A2B5B2BDA0133
:10096000C9018F779070A070B07080349105A10597
:10097000B10539F427FF09C0205C3F4F4F4F5F4F4F
:1009800004C0215C3F4F4F4F5F4FE0E0F0E020306C
:10099000A0E03A07A0E04A07A0E45A0710F0E1E01F
:1009A000F0E079018A0127C06038710564F5FB0128
:1009B000E158FF4FD801C7018F779070A070B070D9
:1009C00080349105A105B10539F4E7FE0DC080E43E
:1009D00090E0A0E0B0E004C08FE390E0A0E0B0E0E1
:1009E000E80EF91E0A1F1B1F17FF05C01695079575
:1009F000F794E794319687E016950795F794E79476
:100A00008A95D1F705C0EE24FF248701EFEFF0E0CF
:100A10006E2F679566276795902F9F77D794DD2473
:100A2000D7948E2F8695492F462B582F5D29B701D5
:100A3000CA011F910F91FF90EF90DF900895FC0184
:100A4000DB01408151812281622F6F7770E0221F8C
:100A50002227221F9381892F880F822B282F30E095
:100A6000991F9927991F11969C931197211531056C
:100A7000A9F5411551056105710511F482E037C0F2
:100A800082E89FEF13969C938E9312979A01AB0185
:100A900067E0220F331F441F551F6A95D1F783E08B
:100AA0008C930DC0220F331F441F551F12968D913A
:100AB0009C911397019713969C938E9312972030D5
:100AC00080E0380780E0480780E4580758F3149620
:100AD0002D933D934D935C93179708952F3F3105C8
:100AE00079F4411551056105710519F484E08C9381
:100AF000089564FF03C081E08C9312C01C9210C063
:100B00002F57304013963C932E93129783E08C938B
:100B100087E0440F551F661F771F8A95D1F77064D1
:100B200014964D935D936D937C93179708951F933F
:100B3000DC01FB019C91923008F447C08081823037
:100B400008F443C0943051F411961C91843099F507
:100B50008181682F70E0611B71093FC0843021F0F2
:100B6000923031F48230B9F18181882389F12DC02E
:100B700011961C9111978230F1F081811817D9F4E8
:100B800012962D913C91139782819381821793073E
:100B900094F028173907BCF014968D919D910D9013
:100BA000BC91A02D248135814681578128173907B2
:100BB0004A075B0718F4112341F00AC08217930714
:100BC000A407B50740F4112319F061E070E005C0F7
:100BD0006FEF7FEF02C060E070E0CB011F910895DE
:100BE000FC0182E08BB988E18AB99AB12081822F19
:100BF00084709B7F892B8AB980E880BD80B58F7C0B
:100C00009181892B80BD80B5877F9281892B80BDA2
:100C100080B52370897F282B20BD238134814581B5
:100C2000568183E0220F331F441F551F8A95D1F749
:100C300060E072E18AE790E00E94AD0A2150304006
:100C400030BD29B908955D9BFECF8CB908955F9B97
:100C5000FECF8CB1089520E004C05D9BFECFECB9BF
:100C60002F5FFC01E20FF11DE081EE23B1F7089543
:100C7000DC015F9BFECF8CB18C9390E008C09F5F3E
:100C80005F9BFECF8CB1FD01E90FF11D8083FD015B
:100C9000E90FF11D8081833291F7108208951F9230
:100CA0000F920FB60F9211242F933F934F935F93A0
:100CB0006F937F938F939F93AF93BF93EF93FF9324
:100CC000E0917801F0917901309709F00995FF9151
:100CD000EF91BF91AF919F918F917F916F915F91B4
:100CE0004F913F912F910F900FBE0F901F9018952D
:100CF0001F920F920FB60F9211242F933F934F9391
:100D00005F936F937F938F939F93AF93BF93EF9373
:100D1000FF93E0917801F0917901309709F00995FE
:100D2000FF91EF91BF91AF919F918F917F916F91C3
:100D30005F914F913F912F910F900FBE0F901F9099
:100D40001895FC01818192819DBD8CBD1FBC1EBC8C
:100D50008EB5887F9581892B8EBD8081882319F07F
:100D60008130A9F407C08FB588608FBD89B78460D2
:100D700089BF0895838194819BBD8ABD8FB58860AA
:100D80008FBD8EB588608EBD89B7806189BF08959B
:100D9000909379018093780108958EB5887F8EBDF8
:100DA00008951FBC1EBC1DBC1CBC1BBC1ABC19BEBC
:100DB0000895FC0182E080B9818181B9109892B1D7
:100DC00080818E7F9170892B82B984E086BF0895DF
:100DD00084EA86BF06B607FEFDCF089584E986BF84
:100DE000089583B984E886BF06B607FEFDCF08954F
:100DF00084EC86BF06B607FEFDCF83B1089584E874
:100E000086BF06B607FEFDCF83B1089581B1887F06
:100E10000895683008F070C0843008F06DC08130EB
:100E200009F1813030F08230B1F1833009F064C0D3
:100E30004BC0413059F42AB381E090E002C0880FE2
:100E4000991F6A95E2F7282B2ABB08952AB381E0FF
:100E500090E002C0880F991F6A95E2F7809582237F
:100E60008ABB0895413059F427B381E090E002C075
:100E7000880F991F6A95E2F7282B27BB089527B39F
:100E800081E090E002C0880F991F6A95E2F7809593
:100E9000822387BB0895413059F424B381E090E068
:100EA00002C0880F991F6A95E2F7282B24BB08958A
:100EB00024B381E090E002C0880F991F6A95E2F7A1
:100EC0008095822384BB0895413059F421B381E099
:100ED00090E002C0880F991F6A95E2F7282B21BB8A
:100EE000089521B381E090E002C0880F991F6A95B0
:100EF000E2F78095822381BB0895683008F070C0C6
:100F0000843008F06DC0813009F1813030F08230DA
:100F1000B1F1833009F064C04BC0413059F42BB3B8
:100F200081E090E002C0880F991F6A95E2F7282BB4
:100F30002BBB08952BB381E090E002C0880F991F6E
:100F40006A95E2F7809582238BBB0895413059F46E
:100F500028B381E090E002C0880F991F6A95E2F7FC
:100F6000282B28BB089528B381E090E002C0880FA9
:100F7000991F6A95E2F78095822388BB08954130D6
:100F800059F425B381E090E002C0880F991F6A955B
:100F9000E2F7282B25BB089525B381E090E002C03D
:100FA000880F991F6A95E2F78095822385BB089583
:100FB000413059F422B381E090E002C0880F991FBC
:100FC0006A95E2F7282B22BB089522B381E090E0D6
:100FD00002C0880F991F6A95E2F78095822382BB31
:100FE00008956830D0F48430C0F4813049F0813005
:100FF00028F0823039F0833081F406C089B305C00F
:1010000086B303C083B301C080B390E002C095955E
:1010100087956A95E2F78170089580E0089584309D
:1010200080F4813049F0813028F0823039F083300B
:1010300041F406C06ABB089567BB089564BB089578
:1010400061BB0895843080F4813049F0813028F00C
:10105000823039F0833041F406C06BBB089568BB21
:10106000089565BB089562BB0895843088F481308B
:1010700049F0813028F0823039F0833049F406C0DD
:1010800089B3089586B3089583B3089580B308950E
:1010900080E00895EF92FF921F93CF93DF93EC01CE
:1010A0007B010E94E8060E940607883089F5CE0180
:1010B000880F892F881F990B9195182F1E70812FEB
:1010C000806A0E94F1060E940607883109F58C2F7C
:1010D0000E94F1060E9406078832D1F40E94E806B9
:1010E0000E9406078031A1F4812F816A0E94F106D7
:1010F0000E940607803461F40E94FF06F701808396
:101100000E940607883521F40E94EE0681E001C0A6
:1011100080E0DF91CF911F91FF90EF9008951F9392
:10112000CF93DF93EC01162F0E94E8060E9406077A
:10113000883009F5CE0180709770880F892F881F3D
:10114000990B9195806A0E94F1060E9406078831EA
:1011500091F48C2F0E94F1060E940607883259F400
:10116000812F0E94F1060E940607883221F40E9416
:10117000EE0681E001C080E0DF91CF911F910895DC
:1011800088E691E00E94D906089512BE8CBF81E0E6
:1011900063E041E00E9409078AE683BF08951F9338
:1011A000182F653698F470E0882777FD8095982F82
:1011B0000E94490323E333E343E250E40E941F0209
:1011C0000E944900DC01CB010E94C508113049F0A2
:1011D000113018F01230C1F40DC080E065E040E03D
:1011E00003C080E065E041E00E947D0780E066E0AA
:1011F00040E008C080E065E040E00E947D0780E0BC
:1012000066E041E00E947D071F91089580E065E05F
:1012100041E00E94090780E066E041E00E94090782
:1012200080E065E040E00E947D0780E066E040E00D
:101230000E947D07089580E062E040E00E947D0703
:10124000089580E062E041E00E947D07089580E01B
:1012500062E041E00E94090780E062E040E00E9415
:101260007D070895AC0120E030E0FA01E20FF31FA2
:10127000DB01A20FB31F90818C91981711F080E0D1
:101280000895922F9F5F2F5F3F4F2530310569F7FB
:1012900080E0953009F481E0089580917A01909181
:1012A0007B01019690937B0180937A01835993404F
:1012B00011F40E94D106089580917A0190917B01EA
:1012C000019690937B0180937A018251914011F4B1
:1012D0000E94D1060895EF92FF920F931F93CF9330
:1012E000DF938C010E94C008C0E0D0E080E4E82ECB
:1012F0008CE9F82EB8016C0F7D1FCE018F5E9C4FDC
:101300000E944A08C7010197F1F72196C530D1051F
:1013100089F7DF91CF911F910F91FF90EF90089582
:101320001F93182F81E00E9423060E942706813018
:10133000E1F7812F0E9423060E9427068230E1F701
:101340001F9108950E9427068130E1F70E9423062D
:101350000E94270680937D0182E00E9423068091EF
:101360007D0108950F931F93CF93DF938C010E940B
:1013700027068130E1F70E942306C0E0D0E00E94FA
:101380002706F801EC0FFD1F80832196C530D1059B
:10139000B1F782E00E942306DF91CF911F910F9158
:1013A00008950F931F93CF93DF930E94C008C1E16C
:1013B000D3E000E41CE9FE01E359F140CE01608175
:1013C0000E948F08C8010197F1F7219683E0C6318A
:1013D000D80789F7DF91CF911F910F910895CF938F
:1013E000DF938AE691E00E94F0058FB780688FBF97
:1013F000C8ECD0E00E94A209883009F43FC08930CF
:1014000028F4833041F08630A9F70AC0893001F111
:101410008A3081F775C08EE791E00E94B209EACF69
:1014200088E891E00E94B2098EE791E068E871E0F7
:101430000E943209882341F00E94D10983E891E09B
:101440000E946B0984E001C085E00E949009D2CF20
:101450008EE791E00E94B20983E891E00E946B0957
:101460008EE791E063E871E00E943209882361F31E
:1014700084E00E94900910927C01BCCF0E94060972
:1014800081E791E00E94A1068CE599E00E94C806E0
:1014900004C081E064E60E94CF0880917A019091B7
:1014A0007B01853E9105A8F380E060E00E94CF08B3
:1014B00080917A0190917B01855E90408D9708F430
:1014C0004BC010927B0110927A010E94D10681E7F5
:1014D00091E00E94A10604C082E064E60E94CF0869
:1014E00080917A0190917B01853E9105A8F380E07F
:1014F00060E00E94CF0810927B0110927A017ACFAF
:1015000080917C018F5F80937C01833009F072CFE2
:101510000E94270981E791E00E94A1068DE499E0ED
:101520000E94C80602C00E94210980917A01909110
:101530007B0183599340B8F30E941B0910927B01F1
:1015400010927A0110927C0180E29EE4FE013197B4
:10155000F1F70197D9F74ECFFFCFA1E21A2EAA1BC0
:10156000BB1BFD010DC0AA1FBB1FEE1FFF1FA21753
:10157000B307E407F50720F0A21BB30BE40BF50B50
:10158000661F771F881F991F1A9469F760957095D9
:10159000809590959B01AC01BD01CF0108952F92DC
:1015A0003F924F925F926F927F928F929F92AF92F3
:1015B000BF92CF92DF92EF92FF920F931F93CF9340
:1015C000DF93CDB7DEB7CA1BDB0B0FB6F894DEBFD7
:1015D0000FBECDBF09942A88398848885F846E84FD
:1015E0007D848C849B84AA84B984C884DF80EE8047
:1015F000FD800C811B81AA81B981CE0FD11D0FB650
:10160000F894DEBF0FBECDBFED010895F894FFCF73
:1016100000000000000000000001020203030303B9
:101620000404040404040404050505050505050572
:101630000505050505050505060606060606060652
:10164000060606060606060606060606060606063A
:101650000606060606060606070707070707070722
:10166000070707070707070707070707070707070A
:1016700007070707070707070707070707070707FA
:1016800007070707070707070707070707070707EA
:1016900007070707070707070808080808080808D2
:1016A00008080808080808080808080808080808BA
:1016B00008080808080808080808080808080808AA
:1016C000080808080808080808080808080808089A
:1016D000080808080808080808080808080808088A
:1016E000080808080808080808080808080808087A
:1016F000080808080808080808080808080808086A
:101700000808080808080808080808080808080859
:1017100008080808080808080100030000802500E0
:081720000000000000000200BF
:00000001FF
