:100000000C942A000C9447000C9447000C94470071
:100010000C9447000C9447000C9447000C94D100BA
:100020000C9447000C94A8000C9447000C944700D3
:100030000C9447000C9447000C9447000C94470024
:100040000C9447000C9447000C9447000C94470014
:100050000C94470011241FBECFE5D8E0DEBFCDBF12
:1000600011E0A0E6B0E0E0E5FDE002C005900D92F1
:10007000A834B107D9F711E0A8E4B1E001C01D929E
:10008000A635B107E1F70E9411060C94A6060C9460
:100090000000FC0182E08BB988E18AB99AB1208125
:1000A000822F84709B7F892B8AB980E880BD80B5C0
:1000B0008F7C9181892B80BD80B5877F9281892B30
:1000C00080BD80B52370897F282B20BD238134819A
:1000D0004581568183E0220F331F441F551F8A95A7
:1000E000D1F760E072E18AE790E00E943F0621507C
:1000F000304030BD29B908955D9BFECF8CB908957D
:100100005F9BFECF8CB1089520E004C05D9BFECFC5
:10011000ECB92F5FFC01E20FF11DE081EE23B1F796
:100120000895DC015F9BFECF8CB18C9390E008C0FA
:100130009F5F5F9BFECF8CB1FD01E90FF11D8083B6
:10014000FD01E90FF11D8081833291F7108208953E
:100150001F920F920FB60F9211242F933F934F933C
:100160005F936F937F938F939F93AF93BF93EF931F
:10017000FF93E0914801F0914901309709F009950A
:10018000FF91EF91BF91AF919F918F917F916F916F
:100190005F914F913F912F910F900FBE0F901F9045
:1001A00018951F920F920FB60F9211242F933F9321
:1001B0004F935F936F937F938F939F93AF93BF936F
:1001C000EF93FF93E0914801F0914901309709F0D6
:1001D0000995FF91EF91BF91AF919F918F917F9181
:1001E0006F915F914F913F912F910F900FBE0F90A4
:1001F0001F901895FC01818192819DBD8CBD1FBC13
:100200001EBC8EB5887F9581892B8EBD8081882309
:1002100019F08130A9F407C08FB588608FBD89B708
:10022000846089BF0895838194819BBD8ABD8FB509
:1002300088608FBD8EB588608EBD89B7806189BFAB
:100240000895909349018093480108958EB5887F61
:100250008EBD08951FBC1EBC1DBC1CBC1BBC1ABCA3
:1002600019BE0895683008F070C0843008F06DC081
:10027000813009F1813030F08230B1F1833009F002
:1002800064C04BC0413059F42AB381E090E002C011
:10029000880F991F6A95E2F7282B2ABB08952AB385
:1002A00081E090E002C0880F991F6A95E2F780957F
:1002B00082238ABB0895413059F427B381E090E04E
:1002C00002C0880F991F6A95E2F7282B27BB089573
:1002D00027B381E090E002C0880F991F6A95E2F78A
:1002E0008095822387BB0895413059F424B381E07F
:1002F00090E002C0880F991F6A95E2F7282B24BB73
:10030000089524B381E090E002C0880F991F6A9598
:10031000E2F78095822384BB0895413059F421B3DC
:1003200081E090E002C0880F991F6A95E2F7282BC0
:1003300021BB089521B381E090E002C0880F991F8E
:100340006A95E2F78095822381BB0895683008F0B2
:1003500070C0843008F06DC0813009F1813030F018
:100360008230B1F1833009F064C04BC0413059F4A0
:100370002BB381E090E002C0880F991F6A95E2F7E5
:10038000282B2BBB08952BB381E090E002C0880F8F
:10039000991F6A95E2F7809582238BBB08954130BF
:1003A00059F428B381E090E002C0880F991F6A9544
:1003B000E2F7282B28BB089528B381E090E002C023
:1003C000880F991F6A95E2F78095822388BB08956C
:1003D000413059F425B381E090E002C0880F991FA5
:1003E0006A95E2F7282B25BB089525B381E090E0BC
:1003F00002C0880F991F6A95E2F78095822385BB1A
:100400000895413059F422B381E090E002C0880F92
:10041000991F6A95E2F7282B22BB089522B381E049
:1004200090E002C0880F991F6A95E2F780958223B9
:1004300082BB08956830D0F48430C0F4813049F034
:10044000813028F0823039F0833081F406C089B3DE
:1004500005C086B303C083B301C080B390E002C07F
:10046000959587956A95E2F78170089580E00895E3
:10047000843080F4813049F0813028F0823039F0C6
:10048000833041F406C06ABB089567BB089564BB1E
:10049000089561BB0895843080F4813049F0813043
:1004A00028F0823039F0833041F406C06BBB0895E8
:1004B00068BB089565BB089562BB0895843088F4D5
:1004C000813049F0813028F0823039F0833049F4AE
:1004D00006C089B3089586B3089583B3089580B3A1
:1004E000089580E00895FF920F931F93F82E83E004
:1004F00062E041E00E94A60100ED17E0C80101970B
:10050000F1F783E063E041E00E94A601C801019792
:10051000F1F782E06F2D0E944B02C8010197F1F7BD
:1005200083E063E040E00E94A601C8010197F1F773
:100530001F910F91FF9008951F93CF93DF93EC01CC
:1005400010E003C00E9473021F5FFE01E10FF11D66
:1005500080818823B9F7DF91CF911F9108950F9380
:100560001F93DF93CF93CDB7DEB760970FB6F894A4
:10057000DEBF0FBECDBF8E010F5F1F4FB8014AE037
:1005800050E00E946106C8010E949C0260960FB66E
:10059000F894DEBF0FBECDBFCF91DF911F910F91B9
:1005A0000895FF920F931F93F82E83E062E040E0DE
:1005B0000E94A60100ED17E0C8010197F1F783E062
:1005C00063E041E00E94A601C8010197F1F782E0D3
:1005D0006F2D0E944B02C8010197F1F783E063E0A1
:1005E00040E00E94A601C8010197F1F71F910F9109
:1005F000FF90089581E00E94D1020895813039F082
:10060000813050F0823029F0833031F404C0605CD6
:1006100003C0605F01C0605B862F80680E94D102CA
:1006200008950F931F938A010E94FE02C8010E9441
:100630009C021F910F91089583E062E041E00E94C7
:10064000320183E063E041E00E94320180E49CE9F2
:100650000197F1F782E06FEF0E94380288E30E9471
:10066000D1028CE00E94D10281E00E94D102089563
:10067000FF920F931F93CF93DF9380E060E040E001
:100680000E94320180E061E040E00E94320180E09F
:1006900062E040E00E94320180E063E040E00E94BE
:1006A000320180E064E040E00E94320180E065E0D9
:1006B00040E00E94320180E066E040E00E943201AA
:1006C00080E067E040E00E94320100E0FF24C0E1EA
:1006D000D7E201C0F02E80E0602F41E00E9432019D
:1006E00080E0602F40E00E94A60110E01C5F80E0E7
:1006F000612F0E941A02612F6350882309F04BC0BA
:100700008F2D880F880F860F883081F1893080F413
:10071000843021F1853038F48230D1F08330E0F438
:10072000813099F517C08630E9F08730E8F418C0B9
:100730008C3021F18D3028F48A30E1F08B30E0F4F8
:1007400017C08F30F9F08031F9F08E30F1F418C015
:1007500088E01BC087E019C089E017C085E215C09A
:1007600084E013C085E011C086E00FC08AE20DC0AE
:1007700081E00BC082E009C083E007C08DE205C0C4
:1007800080E003C08DE301C08BE2DF91CF911F9128
:100790000F91FF900895162F643009F0A7CF80E0E5
:1007A000602F40E00E943201CE010197F1F70F5F08
:1007B000043008F48FCF00E0FF248DCF80915001EA
:1007C000909151010196909351018093500183596A
:1007D000934011F40E942A01089580915001909154
:1007E00051010196909351018093500182519140A3
:1007F00011F40E942A0108950E94FA0281E491E016
:100800000E94FA008DEE93E00E94210106C080E074
:1008100060E040E650E00E94110380915001909109
:100820005101853E910598F30E94FA028091500192
:1008300090915101855E90408D9788F11092510101
:10084000109250010E942A0181E491E00E94FA0076
:1008500006C080E060E041E750E00E941103809113
:10086000500190915101853E910598F30E94FA0242
:1008700006C080E060E040E850E00E9411038091F3
:10088000500190915101855E90408D9790F31092A8
:1008900051011092500181E0809353010895FFCFE0
:1008A0000E94FA0280E060E04CE850E00E941103F0
:1008B00080E395E728EC30E0F9013197F1F70197F3
:1008C000D9F70895EF92FF921F93CF93DF93EC0136
:1008D00088ECE82EF12C0E9438038093550110E03B
:1008E00017C00E943803809355018A3050F41530A8
:1008F00040F4FE01E10FF11D80838AE20E94730241
:100900001F5F88E893E1F7013197F1F70197D9F775
:10091000809155018D3329F7153030F580915201C2
:10092000882311F50E94FA0280E060E04EE950E071
:100930000E94110381E060E04EEA50E00E94110342
:1009400080E395E7F7013197F1F70197D9F70E9416
:10095000FA0280E060E046EB50E00E94110381E083
:1009600060E00E94FE02B7CFDF91CF911F91FF9010
:10097000EF9008950E9480008130E1F70E947C0092
:100980000E9480008093540182E00E947C0080914C
:10099000540108951F93182F81E00E947C000E944B
:1009A00080008130E1F7812F0E947C000E9480004E
:1009B0008230E1F71F9108950E94FA0280E061E021
:1009C00046EC50E00E94110380914F018F5F8093AD
:1009D0004F018AE00E94CA0480914F01833009F5DB
:1009E0000E94FA0281E491E00E94FA008EED93E009
:1009F0000E94210106C080E060E043ED50E00E94CB
:100A0000110380915001909151018359934098F3C3
:100A1000109251011092500110924F0181E0809389
:100A2000530180E29EE428EC30E0F9013197F1F7C0
:100A30000197D9F708950F931F93CF93DF938C01FC
:100A400081E00E947C000E9480008130E1F7C0E0DC
:100A5000D0E0F801EC0FFD1F80810E947C00219600
:100A6000C530D105B1F70E9480008230E1F7DF91F7
:100A7000CF911F910F9108950E94FA0280E060E0EB
:100A800042EE50E00E94110381E060E040EF50E050
:100A90000E9411030E9438038B3221F08D3209F03D
:100AA00069C035C00E94FA0280E060E040E051E099
:100AB0000E94110381E060E00E94FE0288E893E159
:100AC00028EC30E0F9013197F1F70197D9F782E38B
:100AD00080934E018AE491E00E94620489E00E94C2
:100AE000CA048AE491E00E941B050E94BA04843083
:100AF00021F0853009F03EC007C088E00E94CA049A
:100B000082E08093530131C00E94DC0408950E946A
:100B1000FA0280E060E040E051E00E94110381E0D1
:100B200060E00E94FE0288E893E128EC30E0F901E1
:100B30003197F1F70197D9F782E380934E018AE468
:100B400091E00E94620489E00E94CA048AE491E074
:100B50000E941B050E94BA04843019F0853051F4BC
:100B600007C0109252011092530110924F01089544
:100B70000E94DC040895809152018823D1F40E94E0
:100B8000FA0280E060E046EB50E00E94110381E051
:100B900060E00E94FE028AE491E00E94620483E029
:100BA0000E94CA048AE491E00E941B0581E08093C0
:100BB0005201809152018130E9F40E94FA0280E0F2
:100BC00060E040E151E00E94110381E060E00E949A
:100BD000FE0282E480934E018AE491E00E94620466
:100BE00086E00E94CA048AE491E00E941B0582E02C
:100BF0008093520180915201823091F40E94BA0494
:100C0000843019F0853061F407C083E0809352018D
:100C100081E08093530108950E9450041092520184
:100C200008950E941C038AE391E00E9449000E94FB
:100C3000FA0280E060E04FE151E00E94110381E0A0
:100C400060E04DE251E00E94110380E29EE428EC56
:100C500030E0F9013197F1F70197D9F70E94BB0510
:100C60008FB780688FBFE0915301F0E0EE0FFF1F58
:100C7000EC5CFE4F0190F081E02D0995F4CFA1E2EC
:100C80001A2EAA1BBB1BFD010DC0AA1FBB1FEE1F06
:100C9000FF1FA217B307E407F50720F0A21BB30B51
:100CA000E40BF50B661F771F881F991F1A9469F7CD
:100CB00060957095809590959B01AC01BD01CF0129
:100CC0000895FB019F01E8944230C4F04532B4F42A
:100CD0004A3029F497FB1EF4909581959F4F642F1D
:100CE00077270E949206805D8A330CF0895D81939C
:100CF000CB010097A1F716F45DE251931082C90170
:100D00000C948206DC01FC01672F71917723E1F7D7
:100D1000329704C07C916D9370836291AE17BF07C8
:100D2000C8F30895AA1BBB1B51E107C0AA1FBB1F34
:100D3000A617B70710F0A61BB70B881F991F5A9567
:100D4000A9F780959095BC01CD010895F894FFCF47
:100D5000444F4F5220554E4C4F434B494E472E2E39
:100D600000444F4F52204C4F434B494E472E2E00CC
:100D7000444F4F5220436C4F53454400504153530E
:100D800020444F4E54204D415443482E2E00706C49
:100D90007A20656E746572204649564520006E754E
:100DA0006D6265727300454E544552204E45572082
:100DB000504153533A0057524F4E472050415353DE
:100DC000212100534543555249545920414C455225
:100DD0005400282B293A4F50454E20444F4F520083
:100DE000282D293A4348414E47452050415353004E
:100DF000454E54455220594F5552205041535300AF
:100E000052452D454E54455220504153533A0044CB
:100E10004F4F52205345435552495459005359534B
:100E200054454D00BB053C05FC0303000080250034
:080E30000000000000000200B8
:00000001FF
