:100000000C942A000C9447000C9447000C94470071
:100010000C9447000C9447000C9447000C949007F4
:100020000C9447000C945D070C9447000C94470017
:100030000C9447000C9447000C9447000C94470024
:100040000C9447000C9447000C9447000C94470014
:100050000C94470011241FBECFE5D8E0DEBFCDBF12
:1000600011E0A0E6B0E0EEEEF2E202C005900D92E3
:10007000A837B107D9F711E0A8E7B1E001C01D9298
:10008000AD38B107E1F70E94A40D0C9475110C94E2
:100090000000EF92FF920F931F937B018C0120E0F1
:1000A00030E040E05FE40E94490388238CF0C801FF
:1000B000B70120E030E040E05FE40E94C1010E940F
:1000C00007049B01AC01205030404040504806C01E
:1000D000C801B7010E9407049B01AC01B901CA0124
:1000E0001F910F91FF90EF900895A0E0B0E0EBE733
:1000F000F0E00C943E11DC012B01FA019C9192304E
:1001000008F439C1EB018881823008F433C194309E
:1001100069F4843009F02FC111969C91119789815F
:10012000981709F428C1A0E6B0E025C1843009F48D
:1001300021C18230A9F4923009F01DC19A01AD01AC
:1001400088E0EA010990AE01E90109929E0181501F
:10015000C1F7E201898111969C918923818308C1AD
:10016000923009F407C112962D903C901397EB0141
:100170008A819B811496AD90BD90CD90DC901797AD
:10018000EC80FD800E811F819101281B390BB90184
:1001900037FF04C066277727621B730B6032710537
:1001A0000CF061C0121613066CF537014801062EDB
:1001B00004C096948794779467940A94D2F721E0C8
:1001C00030E040E050E004C0220F331F441F551FB1
:1001D0006A95D2F721503040404050402E213F21B7
:1001E00040235123211531054105510521F021E01E
:1001F00030E040E050E079018A01E628F72808293C
:1002000019293CC0232BD1F1260E371E350146019A
:10021000062E04C096948794779467940A94D2F734
:1002200021E030E040E050E004C0220F331F441FC3
:10023000551F6A95D2F721503040404050402A2146
:100240003B214C215D21211531054105510521F04E
:1002500021E030E040E050E059016A01A628B728CB
:10026000C828D9280BC0821593052CF01C01AA249C
:10027000BB24650103C0EE24FF24870111969C91E5
:10028000D20111968C91981709F445C0992339F041
:10029000A80197012A193B094C095D0906C0A6016E
:1002A00095012E193F09400B510B57FD08C01182D3
:1002B0003382228224833583468357831DC081E0A5
:1002C00081833382228288279927DC01821B930B4A
:1002D000A40BB50B84839583A683B7830DC0220F2F
:1002E000331F441F551F24833583468357838281E0
:1002F000938101979383828324813581468157813D
:10030000DA01C9010197A109B1098F5F9F4FAF4F72
:10031000BF4328F30BC0918333822282EA0CFB1C7B
:100320000C1D1D1DE482F5820683178383E0808304
:10033000248135814681578157FF1AC0C901AA27F8
:1003400097FDA095BA2F81709070A070B0705695EF
:10035000479537952795822B932BA42BB52B848318
:100360009583A683B7838281938101969383828349
:10037000DF0101C0D201CD01CDB7DEB7E2E10C94BF
:100380005A11A0E2B0E0E7ECF1E00C944A11698365
:100390007A838B839C832D833E834F835887E9E048
:1003A000EE2EF12CEC0EFD1ECE010196B7010E943F
:1003B0007F058E010F5E1F4FCE010596B8010E948A
:1003C0007F058A8991E089278A8BC701B801AE0130
:1003D000475E5F4F0E9475000E94AA04A096E6E067
:1003E0000C946611A0E2B0E0E8EFF1E00C944A1141
:1003F00069837A838B839C832D833E834F835887C5
:10040000F9E0EF2EF12CEC0EFD1ECE010196B701A6
:100410000E947F058E010F5E1F4FCE010596B80129
:100420000E947F05C701B801AE01475E5F4F0E9481
:1004300075000E94AA04A096E6E00C946611A0E262
:10044000B0E0E5E2F2E00C943E1169837A838B839D
:100450009C832D833E834F835887CE010196BE0136
:10046000675F7F4F0E947F05CE010596BE016F5EDC
:100470007F4F0E947F059985923088F0898982306C
:10048000C8F0943019F4823051F404C0843029F457
:10049000923081F480E690E0C6C0923049F420E0CA
:1004A0009A858A89981321E02A87CE010996BBC0D4
:1004B000823049F420E09A858A89981321E02A8BBA
:1004C000CE014196B0C02D843E844F8458886D88FB
:1004D0007E888F88988CEE24FF248701AA24BB2471
:1004E000650140E050E060E070E0E0E0F0E0C10174
:1004F00081709070892BE9F0E60CF71C081D191D1E
:100500009A01AB012A0D3B1D4C1D5D1D80E090E062
:10051000A0E0B0E0E614F7040805190520F481E036
:1005200090E0A0E0B0E0BA01A901480F591F6A1F8E
:100530007B1FAA0CBB1CCC1CDD1C97FE08C081E0F5
:1005400090E0A0E0B0E0A82AB92ACA2ADB2A3196B6
:10055000E032F10549F0660C771C881C991C569412
:10056000479437942794C3CFFA85EA892B893C892D
:100570008B859C85280F391F2E5F3F4F17C0CA01FE
:1005800081709070892B61F016950795F794E79428
:1005900080E090E0A0E0B0E8E82AF92A0A2B1B2BC3
:1005A00076956795579547952F5F3F4F77FDE7CF36
:1005B0000CC0440F551F661F771F17FD4160EE0CDE
:1005C000FF1C001F111F21503040403090E05907A0
:1005D00090E0690790E4790760F32B8F3C8FDB0193
:1005E000CA018F779070A070B07080349105A1051A
:1005F000B10561F447FD0AC0E114F10401051105DC
:1006000029F0405C5F4F6F4F7F4F40781A8EFE1786
:1006100011F081E08A8F4D8F5E8F6F8F78A383E01A
:10062000898FCE0149960E94AA04A096E2E10C941B
:100630005A11A8E1B0E0EFE1F3E00C944A116983AC
:100640007A838B839C832D833E834F83588789E0F5
:10065000E82EF12CEC0EFD1ECE010196B7010E9492
:100660007F058E010F5E1F4FCE010596B8010E94D7
:100670007F058985823040F08989823028F0C70162
:10068000B8010E94F70501C08FEF6896E6E00C9470
:100690006611A8E1B0E0EFE4F3E00C944A1169833D
:1006A0007A838B839C832D833E834F83588789E095
:1006B000E82EF12CEC0EFD1ECE010196B7010E9432
:1006C0007F058E010F5E1F4FCE010596B8010E9477
:1006D0007F058985823040F08989823028F0C70102
:1006E000B8010E94F70501C08FEF6896E6E00C9410
:1006F0006611A8E1B0E0EFE7F3E00C944A116983DA
:100700007A838B839C832D833E834F83588789E034
:10071000E82EF12CEC0EFD1ECE010196B7010E94D1
:100720007F058E010F5E1F4FCE010596B8010E9416
:100730007F058985823040F08989823028F0C701A1
:10074000B8010E94F70501C081E06896E6E00C94CC
:100750006611A8E0B0E0EFEAF3E00C9447119B01CA
:10076000AC0183E08983DA01C9018827B7FD83954D
:100770009927AA27BB27B82E211531054105510518
:1007800019F482E089833AC08823A9F0203080E000
:10079000380780E0480780E8580729F460E070E0F7
:1007A00080E09FEC30C0EE24FF248701E21AF30AB8
:1007B000040B150B02C079018A018EE1C82ED12CE1
:1007C000DC82CB82ED82FE820F831887C801B701DD
:1007D0000E945B0401971816190684F4082E04C0C1
:1007E000EE0CFF1C001F111F0A94D2F7ED82FE824F
:1007F0000F831887C81AD90ADC82CB82BA82CE014D
:1008000001960E94AA042896E9E00C946311ACE0DA
:10081000B0E0EDE0F4E00C944E1169837A838B83B1
:100820009C83CE010196BE016B5F7F4F0E947F05C6
:100830008D81823061F1823050F1843021F48E81DB
:10084000882351F12EC02F81388537FD20C06E815D
:100850002F3131051CF06623F9F023C08EE190E0C2
:10086000821B930B29853A854B855C8504C0569580
:100870004795379527958A95D2F76623B1F050951D
:100880004095309521953F4F4F4F5F4F0EC020E070
:1008900030E040E050E009C02FEF3FEF4FEF5FE75F
:1008A00004C020E030E040E050E8B901CA012C96D5
:1008B000E2E00C946A11EF92FF920F931F937B0179
:1008C0008C0180E0E81680E0F80681E0080780E00F
:1008D000180788F48FEFE816F1040105110531F0CF
:1008E00028F088E090E0A0E0B0E017C080E090E061
:1008F000A0E0B0E012C080E0E81680E0F80680E0FA
:10090000080781E0180728F088E190E0A0E0B0E057
:1009100004C080E190E0A0E0B0E020E230E040E000
:1009200050E0281B390B4A0B5B0B04C0169507954A
:10093000F794E7948A95D2F7F701E859FF4F808141
:10094000281B310941095109C9011F910F91FF90DD
:10095000EF900895DF92EF92FF920F931F93FC01A7
:10096000E480F58006811781D1808081823048F44F
:1009700080E090E0A0E1B0E0E82AF92A0A2B1B2BE6
:10098000A5C0843009F49FC0823021F4EE24FF24F6
:10099000870105C0E114F1040105110519F4E0E037
:1009A000F0E096C0628173819FEF623879070CF0A6
:1009B0005BC022E83FEF261B370B2A3131052CF0B4
:1009C00020E030E040E050E02AC0B801A701022E4C
:1009D00004C076956795579547950A94D2F781E0BC
:1009E00090E0A0E0B0E004C0880F991FAA1FBB1FD1
:1009F0002A95D2F70197A109B1098E219F21A02341
:100A0000B1230097A105B10521F081E090E0A0E0BD
:100A1000B0E09A01AB01282B392B4A2B5B2BDA0172
:100A2000C9018F779070A070B07080349105A105D6
:100A3000B10539F427FF09C0205C3F4F4F4F5F4F8E
:100A400004C0215C3F4F4F4F5F4FE0E0F0E02030AB
:100A5000A0E03A07A0E04A07A0E45A0710F0E1E05E
:100A6000F0E079018A0127C06038710564F5FB0167
:100A7000E158FF4FD801C7018F779070A070B07018
:100A800080349105A105B10539F4E7FE0DC080E47D
:100A900090E0A0E0B0E004C08FE390E0A0E0B0E020
:100AA000E80EF91E0A1F1B1F17FF05C016950795B4
:100AB000F794E794319687E016950795F794E794B5
:100AC0008A95D1F705C0EE24FF248701EFEFF0E00F
:100AD0006E2F679566276795902F9F77D794DD24B3
:100AE000D7948E2F8695492F462B582F5D29B70115
:100AF000CA011F910F91FF90EF90DF900895FC01C4
:100B0000DB01408151812281622F6F7770E0221FCB
:100B10002227221F9381892F880F822B282F30E0D4
:100B2000991F9927991F11969C93119721153105AB
:100B3000A9F5411551056105710511F482E037C031
:100B400082E89FEF13969C938E9312979A01AB01C4
:100B500067E0220F331F441F551F6A95D1F783E0CA
:100B60008C930DC0220F331F441F551F12968D9179
:100B70009C911397019713969C938E931297203014
:100B800080E0380780E0480780E4580758F314965F
:100B90002D933D934D935C93179708952F3F310507
:100BA00079F4411551056105710519F484E08C93C0
:100BB000089564FF03C081E08C9312C01C9210C0A2
:100BC0002F57304013963C932E93129783E08C93CB
:100BD00087E0440F551F661F771F8A95D1F7706411
:100BE00014964D935D936D937C93179708951F937F
:100BF000DC01FB019C91923008F447C08081823077
:100C000008F443C0943051F411961C91843099F546
:100C10008181682F70E0611B71093FC0843021F031
:100C2000923031F48230B9F18181882389F12DC06D
:100C300011961C9111978230F1F081811817D9F427
:100C400012962D913C91139782819381821793077D
:100C500094F028173907BCF014968D919D910D9052
:100C6000BC91A02D248135814681578128173907F1
:100C70004A075B0718F4112341F00AC08217930753
:100C8000A407B50740F4112319F061E070E005C036
:100C90006FEF7FEF02C060E070E0CB011F9108951D
:100CA000DF93CF9300D000D0CDB7DEB79C838B838A
:100CB0001A821982EBE2F0E082E08083EAE2F0E05F
:100CC00088E18083AAE2B0E0EAE2F0E08081982F38
:100CD0009B7FEB81FC8180818470892B8C93E0E485
:100CE000F0E080E88083A0E4B0E0E0E4F0E0808120
:100CF000982F9F7CEB81FC818181892B8C93A0E4D0
:100D0000B0E0E0E4F0E08081982F977FEB81FC81F8
:100D10008281892B8C93A0E4B0E0E0E4F0E0808154
:100D2000982F997FEB81FC8180818370892B8C9334
:100D3000EB81FC8183819481A581B681880F991F05
:100D4000AA1FBB1F880F991FAA1FBB1F880F991FBF
:100D5000AA1FBB1F9C01AD0180E092E1AAE7B0E0B1
:100D6000BC01CD010E941C11DA01C90101979A83CF
:100D70008983E0E4F0E089819A81892F9927808333
:100D8000E9E2F0E0898180830F900F900F900F903F
:100D9000CF91DF910895DF93CF930F92CDB7DEB758
:100DA0008983EBE2F0E08081882F90E08072907080
:100DB0000097B9F3ECE2F0E0898180830F90CF9146
:100DC000DF910895DF93CF93CDB7DEB7EBE2F0E08C
:100DD00080818823DCF7ECE2F0E08081CF91DF9125
:100DE0000895DF93CF9300D00F92CDB7DEB79B83EA
:100DF0008A8319820EC08981282F30E08A819B81E5
:100E0000FC01E20FF31F80810E94CB0689818F5F76
:100E100089838981282F30E08A819B81FC01E20F40
:100E2000F31F8081882339F70F900F900F90CF9197
:100E3000DF9108950F931F93DF93CF9300D00F920C
:100E4000CDB7DEB79B838A8319828981282F30E052
:100E50008A819B818C01020F131F0E94E206F80118
:100E600080830FC089818F5F89838981282F30E03B
:100E70008A819B818C01020F131F0E94E206F801F8
:100E800080838981282F30E08A819B81FC01E20FD9
:100E9000F31F8081833231F78981282F30E08A81E6
:100EA0009B81FC01E20FF31F10820F900F900F90B7
:100EB000CF91DF911F910F9108951F920F920FB65E
:100EC0000F9211242F933F934F935F936F937F93D0
:100ED0008F939F93AF93BF93EF93FF93DF93CF9342
:100EE000CDB7DEB78091780190917901009729F014
:100EF000E0917801F09179010995CF91DF91FF910F
:100F0000EF91BF91AF919F918F917F916F915F9181
:100F10004F913F912F910F900FBE0F901F901895FA
:100F20001F920F920FB60F9211242F933F934F935E
:100F30005F936F937F938F939F93AF93BF93EF9341
:100F4000FF93DF93CF93CDB7DEB780917801909177
:100F50007901009729F0E0917801F09179010995E4
:100F6000CF91DF91FF91EF91BF91AF919F918F91C1
:100F70007F916F915F914F913F912F910F900FBE95
:100F80000F901F901895DF93CF9300D000D0CDB76E
:100F9000DEB79A838983ACE4B0E0E981FA8181818C
:100FA000928111969C938E93EFE4F0E01082EEE430
:100FB000F0E01082AEE4B0E0EEE4F0E08081982F43
:100FC000987FE981FA818581892B8C93E981FA8167
:100FD0008081282F30E03C832B838B819C8100977C
:100FE00031F02B813C812130310581F02DC0AFE4FF
:100FF000B0E0EFE4F0E0808188608C93A9E5B0E098
:10100000E9E5F0E0808184608C931EC0AAE4B0E042
:10101000E981FA818381948111969C938E93AFE448
:10102000B0E0EFE4F0E0808188608C93AEE4B0E063
:10103000EEE4F0E0808188608C93A9E5B0E0E9E51A
:10104000F0E0808180618C930F900F900F900F9053
:10105000CF91DF910895DF93CF9300D0CDB7DEB766
:101060009A83898389819A81909379018093780109
:101070000F900F90CF91DF910895DF93CF93CDB76D
:10108000DEB7AEE4B0E0EEE4F0E08081887F8C93E0
:10109000CF91DF910895DF93CF93CDB7DEB7EFE423
:1010A000F0E01082EEE4F0E01082ECE4F0E0118277
:1010B0001082EAE4F0E011821082E9E5F0E01082AB
:1010C000CF91DF910895DF93CF9300D0CDB7DEB7F6
:1010D0009A838983E0E2F0E082E08083A1E2B0E0DD
:1010E000E981FA8181818C93A2E2B0E0E2E2F0E052
:1010F00080818E7F8C93A2E2B0E0E2E2F0E080811A
:10110000982F9170E981FA8180818E7F892B8C9351
:10111000E6E5F0E084E080830F900F90CF91DF91BF
:101120000895DF93CF93CDB7DEB7E6E5F0E084EA2C
:101130008083E6E5F0E080818823DCF7CF91DF91C2
:101140000895DF93CF93CDB7DEB7E6E5F0E084E90D
:101150008083CF91DF910895DF93CF930F92CDB726
:10116000DEB78983E3E2F0E089818083E6E5F0E0A1
:1011700084E88083E6E5F0E080818823DCF70F9047
:10118000CF91DF910895DF93CF93CDB7DEB7E6E53A
:10119000F0E084EC8083E6E5F0E080818823DCF7F2
:1011A000E3E2F0E08081CF91DF910895DF93CF9368
:1011B000CDB7DEB7E6E5F0E084E88083E6E5F0E071
:1011C00080818823DCF7E3E2F0E08081CF91DF913A
:1011D0000895DF93CF930F92CDB7DEB7E1E2F0E051
:1011E0008081887F898389810F90CF91DF910895D5
:1011F000DF93CF9300D000D00F92CDB7DEB78983B5
:101200006A834B838A81883008F0D5C08981843015
:1012100008F0D1C08981282F30E03D832C838C8158
:101220009D818130910509F443C02C813D8122309C
:1012300031052CF48C819D81009771F0BCC02C810C
:101240003D812230310509F45FC08C819D8183305E
:10125000910509F485C0AFC08B818130A1F4AAE368
:10126000B0E0EAE3F0E08081482F8A81282F30E067
:1012700081E090E0022E02C0880F991F0A94E2F7E5
:10128000842B8C9398C0AAE3B0E0EAE3F0E080817D
:10129000482F8A81282F30E081E090E0022E02C0A2
:1012A000880F991F0A94E2F7809584238C9383C05A
:1012B0008B818130A1F4A7E3B0E0E7E3F0E0808127
:1012C000482F8A81282F30E081E090E0022E02C072
:1012D000880F991F0A94E2F7842B8C936CC0A7E3C4
:1012E000B0E0E7E3F0E08081482F8A81282F30E0EA
:1012F00081E090E0022E02C0880F991F0A94E2F765
:10130000809584238C9357C08B818130A1F4A4E312
:10131000B0E0E4E3F0E08081482F8A81282F30E0BC
:1013200081E090E0022E02C0880F991F0A94E2F734
:10133000842B8C9340C0A4E3B0E0E4E3F0E0808130
:10134000482F8A81282F30E081E090E0022E02C0F1
:10135000880F991F0A94E2F7809584238C932BC001
:101360008B818130A1F4A1E3B0E0E1E3F0E0808182
:10137000482F8A81282F30E081E090E0022E02C0C1
:10138000880F991F0A94E2F7842B8C9314C0A1E371
:10139000B0E0E1E3F0E08081482F8A81282F30E03F
:1013A00081E090E0022E02C0880F991F0A94E2F7B4
:1013B000809584238C930F900F900F900F900F9037
:1013C000CF91DF910895DF93CF9300D000D00F929B
:1013D000CDB7DEB789836A834B838A81883008F072
:1013E000D5C08981843008F0D1C08981282F30E0B0
:1013F0003D832C838C819D818130910509F443C00C
:101400002C813D81223031052CF48C819D81009707
:1014100071F0BCC02C813D812230310509F45FC0E0
:101420008C819D818330910509F485C0AFC08B818B
:101430008130A1F4ABE3B0E0EBE3F0E08081482F32
:101440008A81282F30E081E090E0022E02C0880FD0
:10145000991F0A94E2F7842B8C9398C0ABE3B0E019
:10146000EBE3F0E08081482F8A81282F30E081E093
:1014700090E0022E02C0880F991F0A94E2F780952F
:1014800084238C9383C08B818130A1F4A8E3B0E0E6
:10149000E8E3F0E08081482F8A81282F30E081E066
:1014A00090E0022E02C0880F991F0A94E2F7842B65
:1014B0008C936CC0A8E3B0E0E8E3F0E08081482FB3
:1014C0008A81282F30E081E090E0022E02C0880F50
:1014D000991F0A94E2F7809584238C9357C08B81DF
:1014E0008130A1F4A5E3B0E0E5E3F0E08081482F8E
:1014F0008A81282F30E081E090E0022E02C0880F20
:10150000991F0A94E2F7842B8C9340C0A5E3B0E0C6
:10151000E5E3F0E08081482F8A81282F30E081E0E8
:1015200090E0022E02C0880F991F0A94E2F780957E
:1015300084238C932BC08B818130A1F4A2E3B0E093
:10154000E2E3F0E08081482F8A81282F30E081E0BB
:1015500090E0022E02C0880F991F0A94E2F7842BB4
:101560008C9314C0A2E3B0E0E2E3F0E08081482F66
:101570008A81282F30E081E090E0022E02C0880F9F
:10158000991F0A94E2F7809584238C930F900F9013
:101590000F900F900F90CF91DF910895DF93CF932D
:1015A00000D000D00F92CDB7DEB78A836B8319824B
:1015B0008B81883008F084C08A81843008F080C034
:1015C0008A81282F30E03D832C834C815D8141301E
:1015D000510579F18C819D818230910534F42C8103
:1015E0003D812115310569F06BC04C815D81423030
:1015F0005105B9F18C819D818330910509F449C071
:101600005FC0E9E3F0E08081282F30E08B81882FF4
:1016100090E0A90102C0559547958A95E2F7CA0165
:1016200081709070882319F081E0898349C0198204
:1016300047C0E6E3F0E08081282F30E08B81882FDF
:1016400090E0A90102C0559547958A95E2F7CA0135
:1016500081709070882319F081E0898331C01982EC
:101660002FC0E3E3F0E08081282F30E08B81882FCA
:1016700090E0A90102C0559547958A95E2F7CA0105
:1016800081709070882319F081E0898319C01982D4
:1016900017C0E0E3F0E08081282F30E08B81882FB5
:1016A00090E0A90102C0559547958A95E2F7CA01D5
:1016B00081709070882319F081E0898301C01982BC
:1016C00089810F900F900F900F900F90CF91DF9125
:1016D0000895DF93CF9300D000D0CDB7DEB78983D4
:1016E0006A838981843090F58981282F30E03C839A
:1016F0002B838B819C8181309105D1F02B813C81A2
:10170000223031052CF48B819C81009761F01EC042
:101710002B813C812230310581F08B819C8183308B
:10172000910581F013C0EAE3F0E08A8180830EC066
:10173000E7E3F0E08A81808309C0E4E3F0E08A8196
:10174000808304C0E1E3F0E08A8180830F900F90F2
:101750000F900F90CF91DF910895DF93CF9300D03A
:1017600000D0CDB7DEB789836A838981843090F554
:101770008981282F30E03C832B838B819C818130B1
:101780009105D1F02B813C81223031052CF48B81E5
:101790009C81009761F01EC02B813C812230310575
:1017A00081F08B819C818330910581F013C0EBE344
:1017B000F0E08A8180830EC0E8E3F0E08A818083D4
:1017C00009C0E5E3F0E08A81808304C0E2E3F0E051
:1017D0008A8180830F900F900F900F90CF91DF91AF
:1017E0000895DF93CF9300D000D0CDB7DEB78A83C2
:1017F00019828A81843090F58A81282F30E03C83D9
:101800002B838B819C8181309105D1F02B813C8190
:10181000223031052CF48B819C81009761F01EC031
:101820002B813C812230310581F08B819C8183307A
:10183000910581F013C0E9E3F0E0808189830EC057
:10184000E6E3F0E08081898309C0E3E3F0E0808192
:10185000898304C0E0E3F0E08081898389810F906F
:101860000F900F900F90CF91DF910895DF93CF935A
:10187000CDB7DEB788E691E00E946308CF91DF9193
:101880000895DF93CF9300D000D0CDB7DEB79A8311
:1018900089836B830E9491080E94E908883011F0C7
:1018A0001C8228C089819A8180709770880F892F47
:1018B000881F990B9195806A0E94AC080E94E908E4
:1018C000883111F01C8216C089810E94AC080E94E8
:1018D000E908883211F01C820DC08B810E94AC088F
:1018E0000E94E908883211F01C8204C00E94A108FD
:1018F00081E08C838C810F900F900F900F90CF918F
:10190000DF910895DF93CF9300D000D00F92CDB731
:10191000DEB79A8389837C836B830E9491080E943F
:10192000E908883011F01D8244C089819A81807055
:101930009770880F892F881F990B9195806A0E9454
:10194000AC080E94E908883111F01D8232C08981FB
:101950000E94AC080E94E908883211F01D8229C05B
:101960000E9491080E94E908803111F01D8221C077
:1019700089819A8180709770880F892F881F990BB1
:101980009195816A0E94AC080E94E908803411F0A8
:101990001D820FC00E94D608EB81FC8180830E94CB
:1019A000E908883511F01D8204C00E94A10881E079
:1019B0008D838D810F900F900F900F900F90CF918E
:1019C000DF910895DF93CF93CDB7DEB780E065E078
:1019D00041E00E94F80880E066E041E00E94F808DB
:1019E00080E065E040E00E94E30980E066E040E0DE
:1019F0000E94E309CF91DF910895DF93CF9300D048
:101A000000D0CDB7DEB789836A838A818536F8F442
:101A10008A81882F90E0AA2797FDA095BA2FBC0154
:101A2000CD010E94A903DC01CB01BC01CD0123E360
:101A300033E343E250E40E941F02DC01CB01BC010E
:101A4000CD010E944900DC01CB010E94610D89811A
:101A5000282F30E03C832B838B819C818130910542
:101A6000A1F02B813C8122303105D1F08B819C810A
:101A7000009701F580E065E040E00E94E30980E026
:101A800066E040E00E94E30915C080E065E041E0C7
:101A90000E94E30980E066E040E00E94E3090AC09A
:101AA00080E065E040E00E94E30980E066E041E01C
:101AB0000E94E3090F900F900F900F90CF91DF914C
:101AC0000895DF93CF930F92CDB7DEB78983E2E518
:101AD000F0E01082ECE5F0E08981808381E063E052
:101AE00041E00E94F808E3E5F0E08AE680830F9089
:101AF000CF91DF910895DF93CF93CDB7DEB780E02C
:101B000062E041E00E94F80880E062E040E00E946C
:101B1000E309CF91DF910895DF93CF93CDB7DEB77F
:101B200080E062E041E00E94E309CF91DF910895F7
:101B3000DF93CF93CDB7DEB780E062E040E00E9454
:101B4000E309CF91DF910895DF93CF93CDB7DEB74F
:101B500060970FB6F894DEBF0FBECDBF8AE691E066
:101B60000E945006AFE5B0E0EFE5F0E080818068CC
:101B70008C930E941610282F30E0388B2F878F858A
:101B800098898830910509F457C02F853889293004
:101B900031055CF48F8598898330910591F02F850C
:101BA00038892630310591F0E4CF8F8598898930C6
:101BB000910539F12F8538892A30310509F484C01F
:101BC000D8CF8EE791E00E94FE0ED3CF88E891E057
:101BD0000E94FE0E8EE791E028E831E0B9010E94F4
:101BE000330F882351F00E94750F83E891E00E9423
:101BF000451084E00E942D10BCCF85E00E942D107E
:101C0000B8CF8EE791E00E94FE0E83E891E00E943B
:101C100045108EE791E023E831E0B9010E94330FCF
:101C2000882331F084E00E942D1010927C01A1CF16
:101C300085E00E942D109DCF0E94E20C81E791E08B
:101C40000E94C30788EE90E10E942B0804C081E047
:101C500064E60E94FD0C80917A0190917B01853EA3
:101C60009105A8F380E060E00E94FD0C80917A016C
:101C700090917B01853E910540F080917A01909191
:101C80007B0131E08231930788F310927B0110923F
:101C90007A010E944B0881E791E00E94C30704C0CB
:101CA00082E064E60E94FD0C80917A0190917B01B4
:101CB000853E9105A8F380E060E00E94FD0C109243
:101CC0007B0110927A0155CF80917C018F5F8093C8
:101CD0007C0180917C01833009F04BCF0E947B0D09
:101CE00081E791E00E94C30782E091E10E942B0806
:101CF00002C00E948C0D80917A0190917B0123E0BB
:101D000083399207B0F30E94980D10927B011092D4
:101D10007A0110927C0180E090E0AAEFB4E48B8716
:101D20009C87AD87BE876B857C858D859E8520E0F1
:101D300030E04AEF54E40E941F02DC01CB018F83A4
:101D40009887A987BA876F81788589859A8520E0E9
:101D500030E040E85FE30E94790388232CF481E0BF
:101D600090E09E838D833FC06F81788589859A85B9
:101D700020E03FEF4FE757E40E94190318164CF597
:101D80006B857C858D859E8520E030E040E251E4C6
:101D90000E941F02DC01CB01BC01CD010E94490061
:101DA000DC01CB019E838D830FC088EC90E09C8387
:101DB0008B838B819C810197F1F79C838B838D8131
:101DC0009E8101979E838D838D819E81009769F707
:101DD000D0CE6F81788589859A850E944900DC0183
:101DE000CB019E838D838D819E819A838983898196
:101DF0009A810197F1F79A838983BBCE0F931F9342
:101E0000DF93CF9300D000D0CDB7DEB79C838B8318
:101E10000E94E2068130E1F781E00E94CB061A823F
:101E2000198210C029813A818B819C818C01020F1B
:101E3000131F0E94E206F801808389819A8101962E
:101E40009A83898389819A81853091055CF382E048
:101E50000E94CB060F900F900F900F90CF91DF91C3
:101E60001F910F910895DF93CF93CDB7DEB72797DA
:101E70000FB6F894DEBF0FBECDBF9C838B837E83ED
:101E80006D831A8219821DC08981282F30E08B81D1
:101E90009C81FC01E20FF31F40818981282F30E0F3
:101EA0008D819E81FC01E20FF31F8081481739F478
:101EB0008A818F5F8A8389818F5F898302C01F82B5
:101EC0000AC08981853000F38A81853019F481E068
:101ED0008F8301C01F828F8127960FB6F894DEBFD3
:101EE0000FBECDBFCF91DF910895DF93CF93CDB7D4
:101EF000DEB72F970FB6F894DEBF0FBECDBF0E949E
:101F0000360C1F8686C08F85882F90E08F5E9C4F91
:101F1000AC018F85882F90E0FC01E258FE4F2081B4
:101F2000CA01622F0E94410C80E090E0A0EAB1E477
:101F30008B879C87AD87BE876B857C858D859E85CD
:101F400020E030E04AEF54E40E941F02DC01CB01A4
:101F50008F839887A987BA876F81788589859A85C5
:101F600020E030E040E85FE30E94790388232CF40E
:101F700081E090E09E838D833FC06F817885898565
:101F80009A8520E03FEF4FE757E40E9419031816A7
:101F90004CF56B857C858D859E8520E030E040E2A8
:101FA00051E40E941F02DC01CB01BC01CD010E9463
:101FB0004900DC01CB019E838D830FC088EC90E04B
:101FC0009C838B838B819C810197F1F79C838B830E
:101FD0008D819E8101979E838D838D819E81009747
:101FE00069F714C06F81788589859A850E944900B8
:101FF000DC01CB019E838D838D819E819A838983B1
:1020000089819A810197F1F79A8389838F858F5F00
:102010008F878F85853008F476CF2F960FB6F8948A
:10202000DEBF0FBECDBFCF91DF910895DF93CF9379
:10203000CDB7DEB70E94E2068130E1F781E00E9471
:10204000CB060E94E20680937D0182E00E94CB06CF
:1020500080917D01CF91DF910895DF93CF930F920F
:10206000CDB7DEB7898381E00E94CB060E94E206ED
:102070008130E1F789810E94CB060E94E20682301E
:10208000E1F70F90CF91DF910895DF93CF93CDB714
:10209000DEB761970FB6F894DEBF0FBECDBF998B48
:1020A000888B0E94360C1F8686C08F85882F90E013
:1020B0008F5E9C4FAC018F85282F30E088899989ED
:1020C000280F391FCA01B9010E94820C80E090E0FC
:1020D000A0EAB1E48B879C87AD87BE876B857C8542
:1020E0008D859E8520E030E04AEF54E40E941F0277
:1020F000DC01CB018F839887A987BA876F817885A8
:1021000089859A8520E030E040E85FE30E9479030A
:1021100088232CF481E090E09E838D833FC06F8103
:10212000788589859A8520E03FEF4FE757E40E9444
:10213000190318164CF56B857C858D859E8520E0EE
:1021400030E040E251E40E941F02DC01CB01BC01FF
:10215000CD010E944900DC01CB019E838D830FC01D
:1021600088EC90E09C838B838B819C810197F1F7B5
:102170009C838B838D819E8101979E838D838D812E
:102180009E81009769F714C06F81788589859A854B
:102190000E944900DC01CB019E838D838D819E814D
:1021A0009A83898389819A810197F1F79A83898338
:1021B0008F858F5F8F878F85853008F476CF619606
:1021C0000FB6F894DEBF0FBECDBFCF91DF9108955B
:1021D000DF93CF93CDB7DEB780917A0190917B01E9
:1021E000019690937B0180937A0180917A0190917E
:1021F0007B0121E08231920711F40E944B08CF91BC
:10220000DF910895DF93CF93CDB7DEB780917A0148
:1022100090917B01019690937B0180937A0180914C
:102220007A0190917B0123E08339920711F40E9497
:102230004B08CF91DF910895A1E21A2EAA1BBB1B78
:10224000FD010DC0AA1FBB1FEE1FFF1FA217B30782
:10225000E407F50720F0A21BB30BE40BF50B661F98
:10226000771F881F991F1A9469F76095709580955C
:1022700090959B01AC01BD01CF0108952F923F9233
:102280004F925F926F927F928F929F92AF92BF9286
:10229000CF92DF92EF92FF920F931F93CF93DF9332
:1022A000CDB7DEB7CA1BDB0B0FB6F894DEBF0FBE8F
:1022B000CDBF09942A88398848885F846E847D84DC
:1022C0008C849B84AA84B984C884DF80EE80FD80DE
:1022D0000C811B81AA81B981CE0FD11D0FB6F89454
:0E22E000DEBF0FBECDBFED010895F894FFCF15
:1022EE0000000000000000000001020203030303CF
:1022FE000404040404040404050505050505050588
:10230E000505050505050505060606060606060667
:10231E00060606060606060606060606060606064F
:10232E000606060606060606070707070707070737
:10233E00070707070707070707070707070707071F
:10234E00070707070707070707070707070707070F
:10235E0007070707070707070707070707070707FF
:10236E0007070707070707070808080808080808E7
:10237E0008080808080808080808080808080808CF
:10238E0008080808080808080808080808080808BF
:10239E0008080808080808080808080808080808AF
:1023AE00080808080808080808080808080808089F
:1023BE00080808080808080808080808080808088F
:1023CE00080808080808080808080808080808087F
:1023DE00080808080808080808080808080808086F
:1023EE0008080808080808080100030000802500F6
:0823FE000000000000000200D5
:00000001FF
